S01D0000676C6F76655F73656E736F72735F72656164696E672E7372656345
S11300000C942F010C9441010C9441010C94410176
S11300100C9441010C9441010C9441010C94410154
S11300200C9441010C942B030C9441010C94410158
S11300300C9441010C9441010C9441010C94410134
S11300400C9441010C9441010C9441010C94410124
S11300500C9441010C9441010C9441010C94410114
S11300600C9441010C9441010C9441010C94410104
S11300700C9441010C9441010C9441010C944101F4
S11300800C9441010C9441010C9441010C944101E4
S11300900C9441010C9441010C9441010C944101D4
S11300A00C9441010C9441010C9441010C944101C4
S11300B00C944101084AD73B3BCE016E84BCBFFD82
S11300C0C12F3D6C74319ABD56833DDA3D00C77F24
S11300D011BED9E4BB4C3E916BAAAABE00000080BD
S11300E03F07634236B79BD8A71A39685618AEBA89
S11300F0AB558C1D3CB7CC5763BD6DEDFD753EF61D
S1130100177231BF000000803F08000000BE922437
S113011049123EABAAAA2ABECDCCCC4C3E0000006C
S113012080BEABAAAAAA3E00000000BF0000008067
S11301303F0000000000084178D3BB4387D1133D42
S1130140190E3CC3BD4282AD2B3E68EC8276BED90B
S11301508FE1A93E4C80EFFFBE01C4FF7F3F00004A
S11301600000000000407A10F35A00A0724E1809F3
S11301700010A5D4E80000E87648170000E40B540A
S1130180020000CA9A3B000000E1F50500008096D9
S11301909800000040420F000000A086010000000B
S11301A0102700000000E8030000000064000000C5
S11301B000000A00000000000100000000002C768E
S11301C0D888DC674F0823DFC1DFAE59E1B1B796A9
S11301D0E5E3E453C63AE651997696E8E6C2842606
S11301E0EB898C9B62ED407C6FFCEFBC9C9F40F2E2
S11301F0BAA56FA5F490055A2AF75C936B6CF9675E
S11302006DC11BFCE0E40D47FEF520E6B500D0ED22
S1130210902E0300943577050080841E080000208A
S11302204E0A000000C80C333333330F986E128328
S11302301141EF8D2114893BE65516CFFEE6DB18FC
S1130240D1844B381BF77C1D901DA4BBE4242032C1
S113025084725E228100C9F124ECA1E53D271124BA
S11302601FBECFEFD8E0DEBFCDBF21E0A0E0B1E0FC
S113027001C01D92A234B207E1F70E94D2010C948E
S1130280D30B0C9400001092B90088E48093B8005A
S1130290089584EA8093BC008091BC008823E4F72D
S11302A0089584E98093BC0008958093BB0084E89A
S11302B08093BC008091BC008823E4F7089584EC0B
S11302C08093BC008091BC008823E4F78091BB003C
S11302D0089584E88093BC008091BC008823E4F7EF
S11302E08091BB0008958091B900887F0895E4E669
S11302F0F0E080818E7F8083ACE7B0E08C918064F5
S11303008C938C918F778C93EAE7F0E08081816005
S113031080838081826080838081846080838C91EB
S11303208E7F8C938C918D7F8C938C918B7F8C930F
S11303308C91877F8C93808180628083ABE7B0E06F
S11303408C918E7F8C938C918D7F8C938C918B7FF1
S11303508C93AEE7B0E08C9181608C93808180684F
S1130360808380818064808308950E94770187E67A
S113037090E00E94DE0487E690E00E94ED0484B1E0
S113038084B984B184B90E947B0263E08AE10E944B
S1130390AA0260E08BE10E94AA0260E08CE10E9464
S11303A0AA020895CF93DF93CDB7DEB7CC58D10915
S11303B00FB6F894DEBF0FBECDBF0E94B5011092F8
S11303C02E0110922F0110923001109231011092DF
S11303D024011092250110922601109227010E94F7
S11303E05003809178009091790090931301809349
S11303F01201609128017091290180912A01909144
S11304002B018E010B591F4F22E046E00E94030985
S1130410609138017091390180913A0190913B01CA
S1130420065F1F4F22E046E00E9403096091160117
S1130430709117018091180190911901065F1F4F67
S113044022E046E00E9403094AE0BE016D577F4F57
S113045080911201909113010E943509BE016D57DC
S11304607F4F08571109C8010E942E09F801019015
S11304700020E9F731970F2EFCE2EF2EF12CF02D3E
S1130480F182E082BE016B597F4FC8010E942309AB
S1130490F80101900020E9F73197F182E082BE0172
S11304A061597F4FC8010E942309F801019000207F
S11304B0E9F73197F182E082BE0167587F4FC801A6
S11304C00E942309F80101900020E9F731978AE09E
S11304D090E091838083C8010E941705C8010E949F
S11304E00A052FEF89E698E1215080409040E1F71A
S11304F000C0000074CF0E9443010E9449010E9481
S113050073018830F9F480ED0E9455010E94730153
S11305108831D1F48BE60E9455010E947301883220
S1130520A9F480E00E9455010E947301883281F48D
S11305300E9451018FE99FE00197F1F700C000008C
S113054080E008958FEF08958FEF08958FEF089559
S11305508FEF0895CF93DF93C82FD62F0E944301C6
S11305600E9449010E9473018830E9F480ED0E94E1
S113057055010E9473018831C1F48C2F0E945501EA
S11305800E947301883299F48D2F0E9455010E94B4
S11305907301883271F40E94510185E38A95F1F761
S11305A0000080E007C08FEF05C08FEF03C08FEF1E
S11305B001C08FEFDF91CF9108950F931F93CF93D5
S11305C0C82F8B010E9449010E9473018830B1F544
S11305D080ED0E9455010E947301883189F58C2FAA
S11305E00E9455010E947301883261F50E945101F5
S11305F085E38A95F1F700000E9449010E94730186
S1130600883011F581ED0E9455010E9473018034F8
S1130610E9F40E945F01F801108281830E9469015C
S1130620F80120813181282B318320830E945101DC
S1130630F5E3FA95F1F7000080E009C08FEF07C0F9
S11306408FEF05C08FEF03C08FEF01C08FEFCF9105
S11306501F910F9108951F920F920FB60F921124BC
S11306608F939F93AF93BF9380912E0190912F010D
S1130670A0913001B09131010196A11DB11D80936B
S11306802E0190932F01A0933001B0933101BF91BB
S1130690AF919F918F910F900FBE0F901F9018955F
S11306A04F925F926F927F928F929F92AF92BF927E
S11306B0CF92DF92EF92FF92CF93DF9300D000D0DE
S11306C0CDB7DEB762E371E08BE30E94DD0264E143
S11306D071E08DE30E94DD026AE171E08FE30E9424
S11306E0DD0268E071E083E40E94DD0268E071E00D
S11306F083E40E94DD026CE271E085E40E94DD0285
S11307006CE371E087E40E94DD0260913201709134
S11307103301072E000C880B990B0E94340620E04D
S113072030E046E953E40E94250520E030E040E84B
S113073058E30E94EF062DEC3CEC4CE151E40E949E
S1130740EF062B013C0160932001709321018093FB
S11307502201909323016091140170911501072ED9
S1130760000C880B990B0E94340620E030E84EE51B
S113077054E40E94240520E030E040E858E30E945D
S1130780EF062DEC3CEC4CE151E40E94EF064B01EA
S11307905C0160931C0170931D0180931E01909372
S11307A01F0160911A0170911B01072E000C880B28
S11307B0990B0E94340620E030E042EF53E40E949B
S11307C0250520E030E040E858E30E94EF062DECD8
S11307D03CEC4CE151E40E94EF066B017C01609318
S11307E03E0170933F0180934001909341016091D9
S11307F0080170910901072E000C880B990B0E94C7
S1130800340620E030E04CE053E40E94250520E06B
S113081030E043E053E40E94C00560930E017093FE
S11308200F01809310019093110160912C0170913C
S11308302D01072E000C880B990B0E94340620E032
S113084030E046E952E40E94250520E030E043E030
S113085053E40E94C00560930001709301018093EA
S113086002019093030160913C0170913D01072EB8
S1130870000C880B990B0E94340620E030E047E01E
S113088053E40E94240520E030E043E053E40E9456
S1130890C00560931601709317018093180190931B
S11308A0190120E030E040E050E4C301B2010E94AD
S11308B05C0769837A838B839C8320E030E040E08B
S11308C050E4C701B6010E945C076B017C01A701DB
S11308D0960169817A818B819C810E9425050E9401
S11308E0B2079B01AC01C501B4010E94C0050E947E
S11308F0910520E030E044E353E40E94EF062BED41
S11309003FE049E450E40E94C0052AE939E949E19D
S11309105FE30E9425056093280170932901809369
S11309202A0190932B0177FA709477F8709420E061
S113093030E040E050E4C501B4010E945C074B0183
S11309405C01A5019401C701B6010E9425050E941E
S1130950B2079B01AC01C301B2010E94C0050E9411
S1130960910520E030E044E353E40E94EF062BEDD0
S11309703FE049E450E40E94C00520E030E040E854
S113098050E40E94240560933801709339018093E8
S11309903A0190933B010F900F900F900F90DF91CD
S11309A0CF91FF90EF90DF90CF90BF90AF909F904A
S11309B08F907F906F905F904F9008959093C500B3
S11309C08093C40088E18093C100E2ECF0E086E00B
S11309D0808380818860808308959093CD00809384
S11309E0CC0088E18093C900EAECF0E086E08083E3
S11309F080818860808308959091C00095FFFCCF2A
S1130A008093C60008959091C80095FFFCCF809311
S1130A10CE000895CF93DF93EC0103C00E94FC0441
S1130A20219688818111FACFDF91CF910895CF93D8
S1130A30DF93EC0103C00E94030521968881811194
S1130A40FACFDF91CF9108955058BB27AA270E946F
S1130A503C050C94AD060E949F0638F00E94A60641
S1130A6020F039F49F3F19F426F40C9475060EF423
S1130A70E095E7FB0C946F06E92F0E94BE0658F33D
S1130A80BA17620773078407950720F079F4A6F56F
S1130A900C94E0060EF4E0950B2EBA2FA02D0B015A
S1130AA0B90190010C01CA01A0011124FF27591BAF
S1130AB099F0593F50F4503E68F11A16F040A22FB5
S1130AC0232F342F4427585FF3CF46953795279526
S1130AD0A795F0405395C9F77EF41F16BA0B620B25
S1130AE0730B840BBAF09150A1F0FF0FBB1F661F6C
S1130AF0771F881FC2F70EC0BA0F621F731F841FAF
S1130B0048F4879577956795B795F7959E3F08F0D4
S1130B10B0CF9395880F08F09927EE0F9795879596
S1130B200895DF93DD27B92FBF7740E85FE31616FA
S1130B30170648075B0718F4D92F0E94E7069F930E
S1130B408F937F936F930E94F207E4EBF0E00E948F
S1130B5078060E94AD062F913F914F915F910E94BC
S1130B600207DD2351F09058A2EA2AED3FE049EC58
S1130B705FE3D0785D270E943C05DF910C94AD06BD
S1130B800E94D4050C94AD060E94A60658F00E945B
S1130B909F0640F029F45F3F29F00C946F06511131
S1130BA00C94E1060C9475060E94BE0668F3992322
S1130BB0B1F3552391F3951B550BBB27AA27621755
S1130BC07307840738F09F5F5F4F220F331F441F62
S1130BD0AA1FA9F335D00E2E3AF0E0E832D0915096
S1130BE05040E695001CCAF72BD0FE2F29D0660F83
S1130BF0771F881FBB1F261737074807AB07B0E8C6
S1130C0009F0BB0B802DBF01FF2793585F4F3AF0CB
S1130C109E3F510578F00C946F060C94E1065F3FFB
S1130C20E4F3983ED4F3869577956795B795F79551
S1130C309F5FC9F7880F911D9695879597F9089539
S1130C40E1E0660F771F881FBB1F621773078407D5
S1130C50BA0720F0621B730B840BBA0BEE1F88F7E4
S1130C60E0950895E89409C097FB3EF4909580952B
S1130C70709561957F4F8F4F9F4F9923A9F0F92F5E
S1130C8096E9BB279395F695879577956795B795DC
S1130C90F111F8CFFAF4BB0F11F460FF1BC06F5FC2
S1130CA07F4F8F4F9F4F16C0882311F096E911C0D4
S1130CB0772321F09EE8872F762F05C0662371F0F5
S1130CC096E8862F70E060E02AF09A95660F771F09
S1130CD0881FDAF7880F9695879597F9089597F9FD
S1130CE09F6780E870E060E008959FEF80EC0895CE
S1130CF0DF93CF931F930F93FF92EF92DF927B01C9
S1130D008C01689406C0DA2EEF010E940207FE01EE
S1130D10E894A5912591359145915591A6F3EF015C
S1130D200E943C05FE019701A801DA9469F7DF905F
S1130D30EF90FF900F911F91CF91DF9108950024C0
S1130D400A941616170618060906089500240A942C
S1130D5012161306140605060895092E0394000CB2
S1130D6011F4882352F0BB0F40F4BF2B11F460FF41
S1130D7004C06F5F7F4F8F4F9F4F089557FD90586A
S1130D80440F551F59F05F3F71F04795880F97FB4B
S1130D90991F61F09F3F79F0879508951216130605
S1130DA01406551FF2CF4695F1DF08C01616170634
S1130DB01806991FF1CF8695710561050894089569
S1130DC0E894BB2766277727CB0197F908959B0101
S1130DD0AC0160E070E080E89FE30C94C0050E94E1
S1130DE002070C94AD060E949F0638F00E94A606E6
S1130DF020F0952311F00C946F060C9475061124C1
S1130E000C94E1060E94BE0670F3959FC1F3950F02
S1130E1050E0551F629FF001729FBB27F00DB11D7A
S1130E20639FAA27F00DB11DAA1F649F6627B00D0A
S1130E30A11D661F829F2227B00DA11D621F739FF3
S1130E40B00DA11D621F839FA00D611D221F749F01
S1130E503327A00D611D231F849F600D211D822F48
S1130E60762F6A2F11249F5750409AF0F1F088236F
S1130E704AF0EE0FFF1FBB1F661F771F881F91509C
S1130E805040A9F79E3F510580F00C946F060C94D6
S1130E90E1065F3FE4F3983ED4F386957795679532
S1130EA0B795F795E7959F5FC1F7FE2B880F911DC6
S1130EB09695879597F90895FA01EE0FFF1F3096DE
S1130EC021053105A1F16115710561F48038BFE395
S1130ED09B0749F168949038810561F08038BFEF31
S1130EE09B0741F099234AF5FF3FE10531052105B0
S1130EF019F1E8940894E795D901AA2329F4AB2FB2
S1130F00BE2FF85FD0F310C0FF5F70F4A695E0F732
S1130F10F73950F019F0FF3A38F49F779F930DD0CA
S1130F200F9007FC9058089546F00C94750660E005
S1130F3070E080E89FE308954FE79F775F934F93B6
S1130F403F932F930E9487082F913F914F915F9178
S1130F500E94EF060C94FE0719F416F40C9475061F
S1130F600C9430080E94C606B8F39923C9F3B6F36B
S1130F709F57550B87FF0E943E080024A0E640EAD5
S1130F80900180585695979528F4805C660F771FDA
S1130F90881F20F026173707480730F4621B730BAD
S1130FA0840B202931294A2BA695179407942025D0
S1130FB031254A2758F7660F771F881F20F0261718
S1130FC03707480730F4620B730B840B200D311D77
S1130FD0411DA09581F7B901842F9158880F9695EA
S1130FE0879508959B01AC010C94EF0629F416F043
S1130FF00C946F060C94E0060C9475060E94C606C9
S1131000A8F39638A0F707F80F92E8942BE33AEA8E
S113101048EB5FE70E9405070F920F920F924DB7BE
S11310205EB70F920E94CF08E1EEF0E00E947806CE
S11310304F915F91EF91FF91E595EE1FFF1F49F0EE
S1131040FE57E0684427EE0F441FFA95E1F74195F7
S1131050550B0E9449080F9007FE0C94E70608956B
S11310609F3F31F0915020F4879577956795B79518
S1131070880F911D9695879597F908959150504042
S1131080660F771F881FD2F708950C946F060C948F
S113109030080E94C606D8F39923C9F3940F511D52
S11310A0A3F39150504094F059F0882332F0660F26
S11310B0771F881F91505040C1F79E3F51052CF770
S11310C0880F911D9695879597F908955F3FACF029
S11310D0983E9CF0BB27869577956795B79508F45D
S11310E0B1609395C1F7BB0F58F711F460FFE8CFD7
S11310F06F5F7F4F8F4F9F4FE3CF0C94E10616F045
S11311000C9430080C94750668940C946F060E9435
S1131110C606A8F39923C1F3AEF3DF93CF931F93CD
S11311200F93FF92C92FDD2788232AF02197660F9A
S1131130771F881FDAF720E030E040E85FEB9FE399
S1131140883920F0803E38F021968F770E9425055B
S1131150E9E0F1E004C00E942505E6E3F1E00E9425
S113116078068B01BE01EC01FB2E6F577109759552
S1131170771F880B990B0E94340628E132E741E37C
S11311805FE30E940207AF2D9801AE01FF900F911B
S11311901F91CF91DF910E943C050C94AD06FA019A
S11311A0DC01AA0FBB1F9B01AC01BF5728F4222707
S11311B033274427507820C0B75190F4AB2F002434
S11311C0469537952795011CA395D2F3002071F01D
S11311D0220F331F441FB395DAF30ED00C94240569
S11311E061307105A0E88A07B94630F49B01AC016F
S11311F06627772788279078309621F020833183DB
S1131200428353830895EF920F931F93CF93DF93F9
S1131210E80147FD02C034E001C034E1042E000CB3
S1131220550B57FF03C0519541955109E32E022FE9
S1131230242FAE010E945A09CE01DF91CF911F9154
S11312400F91EF900895FB01DC010D900020E9F768
S1131250119701900D920020E1F70895FB01DC0144
S113126001900D920020E1F70895BB274A3031F434
S1131270992322F4BDE2909581959F4F0C944109E6
S1131280BB27FB015527AA27880F991FAA1FA4175C
S113129010F0A41B83955051B9F7A05DAA3308F050
S11312A0A95DA193009779F7B111B1931192CB0184
S11312B00C948C0BA9E0B0E0E0E6F9E00C94A20BEE
S11312C06A01122FB02E2BE3201720F0FF24F39491
S11312D0F00E02C02CE3F22E0F2D27E0AE014F5F7B
S11312E05F4F0E94B40ABC014981842F8970813008
S11312F031F0E1FC06C0E0FE06C090E205C09DE2CC
S113130003C09BE201C090E05E2D507143FF3CC0DE
S1131310911102C083E001C084E0811718F4212FE9
S1131320281B01C020E051110BC0F601822F30E2CE
S1131330882319F031938150FBCFC20ED11C20E0D9
S1131340992329F0D6019C93F60131966F01C601C9
S11313500396E2FE0AC03EE4D6013C9341E41196B2
S11313604C93119712963C9306C03EE6F6013083E7
S113137041E641833283FC01322F40E2332309F4F6
S113138042C041933150FACF42FF44C0911102C090
S113139083E001C084E0811718F4212F281B01C0C9
S11313A020E051110BC0F601822F30E2882319F09E
S11313B031938150FBCFC20ED11C20E0992329F038
S11313C0D6019C93F60131966F01C6010396E2FEA5
S11313D00BC039E4D6013C933EE411963C9311973B
S11313E036E412963C9307C039E6F60130833EE6B4
S11313F0318336E63283FC01322F40E2332319F085
S113140041933150FBCFFC01E20FF11D10828EEFAE
S11314109FEFA6C021E030E0911102C020E030E04F
S1131420161617061CF4FB01319602C0E1E0F0E049
S11314302E0F3F1FBB2021F0EB2DF0E0319602C0B0
S1131440E0E0F0E02E0F3F1FE12FF0E02E173F0702
S11314501CF4121B212F01C020E08E2D887159F439
S1131460F601822F30E2882319F031938150FBCFAB
S1131470C20ED11C20E0992329F0D6019C93F601D9
S113148031966F0151110BC0F601822F90E388232E
S113149019F091938150FBCFC20ED11C20E00F2D87
S11314A0060F9A81342F307144FF03C0913309F43D
S11314B00150101624F4093018F008E001C001E0CE
S11314C0AB0177FF02C040E050E0FB01E41BF50BE9
S11314D0A1E0B0E0AC0FBD1FEA0FFB1F8EE2A82E07
S11314E04B01801A91080B2D10E0119501951109FB
S11314F04F3FBFEF5B0721F4D601AC9211966D010B
S1131500641775072CF08416950614F4818101C0C4
S113151080E3415051093196D60111967D0140175F
S1131520510724F0D6018C936701E2CF6417750745
S113153039F4963320F4953319F4311101C081E361
S1131540F6018083F701822F90E2882319F09193AA
S11315508150FBCFF701E20FF11D108280E090E093
S11315602996ECE00C94BE0B283008F027E03327D2
S1131570DA01990F311D87FD9160009661057105AF
S113158039F432602E5F3D9330E32A95E1F70895F4
S11315909F3F30F080387105610509F03C5F3C5F86
S11315A03D93913008F08068911DDF93CF931F9392
S11315B00F93FF92EF92192F987F9695E92F9695A6
S11315C09695E90FFF27E254FE4F99273327EE241F
S11315D0FF24A701E70105900894079428F4360F27
S11315E0E71EF81E491F511D660F771F881F991F9C
S11315F00694A1F70590079428F4E70EF81E491FF6
S1131600561FC11D770F881F991F661F0694A1F7E7
S11316100590079428F4F80E491F561FC71FD11DC3
S1131620880F991F661F771F0694A1F705900794EA
S113163020F4490F561FC71FD81F990F661F771F25
S1131640881F0694A9F784911095177041F0D695D8
S1131650C79557954795F794E7941A95C1F7E4E62B
S1131660F1E06894159015913591659195910590E7
S11316707FE27395E118F10A430B560BC90BD009AD
S1131680C0F7E10CF11E431F561FC91FD01D7EF485
S1131690703311F48A95E6CFE894015030F0080FC6
S11316A00AF40027021708F4202F2395022F7A3317
S11316B028F079E37D932A95E9F710C07D932A9564
S11316C089F6069497956795379517951794E118B9
S11316D0F10A430B560BC90BD00998F023957E9160
S11316E073957A3308F070E37C932013B8F77E91F6
S11316F070617D9330F0839571E37D9370E32A9557
S1131700E1F71124EF90FF900F911F91CF91DF919A
S1131710992787FD90950895DC01FC01672F71914D
S11317207723E1F7329704C07C916D9370836291C3
S1131730AE17BF07C8F308952F923F924F925F925E
S11317406F927F928F929F92AF92BF92CF92DF92CD
S1131750EF92FF920F931F93CF93DF93CDB7DEB732
S1131760CA1BDB0B0FB6F894DEBF0FBECDBF0994C6
S11317702A88398848885F846E847D848C849B841D
S1131780AA84B984C884DF80EE80FD800C811B812B
S1131790AA81B981CE0FD11D0FB6F894DEBF0FBE5A
S10D17A0CDBFED010895F894FFCFCA
S9030000FC
