:100000000C94F5000C9412010C9412010C94120142
:100010000C9412010C9412010C9412010C94120114
:100020000C9412010C9412010C9412010C94120104
:100030000C9412010C9412010C9412010C941201F4
:100040000C9412010C9412010C9412010C941201E4
:100050000C9412010C9412010C9412010C941201D4
:100060000C9412010C9412010C9412010C941201C4
:100070000C9412010C9412010C9412010C941201B4
:100080000C9412010C9412010C9412010C941201A4
:100090000C9412010C9412010C9412010C94120194
:1000A0000C9412010C9412010C9412010C94120184
:1000B0000C9412014E414E494E495459494E46CD79
:1000C000CCCC3D0AD7233C17B7D13877CC2B32950F
:1000D00095E6241FB14F0A000020410000C84200ED
:1000E000401C4620BCBE4CCA1B0E5AAEC59D7400B7
:1000F000407A10F35A00A0724E18090010A5D4E8F7
:100100000000E87648170000E40B54020000CA9A89
:100110003B000000E1F505000080969800000040DB
:10012000420F000000A08601000000102700000020
:1001300000E803000000006400000000000A000066
:100140000000000100000000002C76D888DC674F1A
:100150000823DFC1DFAE59E1B1B796E5E3E453C64A
:100160003AE651997696E8E6C28426EB898C9B6242
:10017000ED407C6FFCEFBC9C9F40F2BAA56FA5F4EC
:1001800090055A2AF75C936B6CF9676DC11BFCE014
:10019000E40D47FEF520E6B500D0ED902E03009467
:1001A0003577050080841E080000204E0A000000FC
:1001B000C80C333333330F986E12831141EF8D2106
:1001C00014893BE65516CFFEE6DB18D1844B381B6D
:1001D000F77C1D901DA4BBE424203284725E228132
:1001E00000C9F124ECA1E53D270011241FBECFEF8B
:1001F000D8E0DEBFCDBF11E0A0E0B1E0EEE6F1E176
:1002000002C005900D92AC31B107D9F721E0ACE105
:10021000B1E001C01D92A13BB207E1F70E94C70205
:100220000C94B5080C94000014BC84B5836084BDA4
:1002300085B5877F85BD84B5806A84BD85B58560B9
:1002400085BD85B58D7F85BD8AB180648AB98AB147
:1002500080628AB9089584B1826084B984B184606F
:1002600084B9E0E8F0E01082808182608083E1E878
:10027000F0E080818A6180838FE39CE9909387001E
:10028000809386000895CF92DF92EF92FF92C09004
:10029000A701D090A801E090A901F090AA0120E068
:1002A00030E04CE052E4C701B6010E94700318161A
:1002B00064F4E0E8F0E08081806880838FEC97E070
:1002C000909389008093880015C020E030E04CE0D6
:1002D00052ECC701B6010E94470388235CF4E0E8B2
:1002E000F0E080818068808383E991E190938900C8
:1002F00080938800FF90EF90DF90CF900895CF9289
:10030000DF92EF92FF92C090AB01D090AC01E090F1
:10031000AD01F090AE0120E030E04CE052E4C701C6
:10032000B6010E947003181664F4E0E8F0E08081E2
:10033000806280838FEC97E090938B0080938A009B
:1003400015C020E030E04CE052ECC701B6010E943D
:10035000470388235CF4E0E8F0E0808180628083DA
:100360008BEA9DE090938B0080938A00FF90EF9042
:10037000DF90CF900895CF92DF92EF92FF92C090DE
:100380002301D0902401E0902501F090260120E087
:1003900030E040E252E4C701B6010E9447038823DF
:1003A00034F484B5806884BD8CE087BD0FC020E044
:1003B00030E040E252E4C701B6010E947003181613
:1003C0002CF484B5806884BD8EE187BDFF90EF90EA
:1003D000DF90CF900895CF92DF92EF92FF92C0907E
:1003E0001F01D0902001E0902101F090220120E037
:1003F00030E048EC52E4C701B6010E9470031816C1
:1004000034F484B5806284BD83E288BD0FC020E0EF
:1004100030E048EC52ECC701B6010E944703882344
:100420002CF484B5806284BD8CE088BDFF90EF9091
:10043000DF90CF9008950F931F93CF93DF93CDB7A5
:10044000DEB764970FB6F894DEBF0FBECDBF60E095
:1004500071E00E949903009781F00E9495036093D8
:10046000230170932401809325019093260160E07D
:1004700071E080E090E00E949903009781F00E9473
:1004800095036093A7017093A8018093A9019093AD
:10049000AA0160E071E080E090E00E94990300977B
:1004A00081F00E9495036093AB017093AC0180933F
:1004B000AD019093AE0160E071E080E090E00E94B9
:1004C0009903009751F00E94950360931F01709368
:1004D000200180932101909322016091230170916A
:1004E000240180912501909126018E010F5F1F4FFD
:1004F00022E046E00E94750382E091E00E942E0314
:10050000C8010E942E036091A7017091A8018091FB
:10051000A9019091AA0122E046E00E94750389E0BA
:1005200091E00E942E03C8010E942E036091AB014E
:100530007091AC018091AD019091AE0122E046E056
:100540000E9475038FE091E00E942E03C8010E9473
:100550002E0360911F0170912001809121019091E3
:10056000220122E046E00E94750384E191E00E94AE
:100570002E03C8010E942E0364960FB6F894DEBFC6
:100580000FBECDBFDF91CF911F910F91089587E6E8
:1005900090E00E94090387E690E00E941803F89417
:1005A0000E9414010E942B01789484B184B90E94A6
:1005B0003B03892B29F10E9440038A3011F08D30D2
:1005C00089F4E0911E01F0E0E95DFE4F108287E2C0
:1005D00091E00E941B0289E191E00E942E0310929B
:1005E0001E010EC090911E019F3750F4E0911E0134
:1005F00091E09E0F90931E01F0E0E95DFE4F808335
:100600000E9443010E947F010E94BB010E94EB01F6
:10061000CECF9093C5008093C40088E18093C10041
:10062000E2ECF0E086E0808380818860808308953A
:100630009093CD008093CC0088E18093C900EAECD0
:10064000F0E086E0808380818860808308959091C7
:10065000C00095FFFCCF8093C6000895CF93DF9331
:10066000EC0103C00E942703219688818111FACFF3
:10067000DF91CF9108958091C800807890E008952F
:100680008091C8008823E4F78091CE0008950E94ED
:100690004C0308F481E00895990F0008550FAA0B48
:1006A000E0E8FEEF16161706E807F907C0F0121685
:1006B0001306E407F50798F0621B730B840B950B88
:1006C00039F40A2661F0232B242B252B21F40895DD
:1006D0000A2609F4A140A6958FEF811D811D08957A
:1006E0000E944C0308F48FEF0895EF920F931F932D
:1006F000CF93DF93E80147FD02C034E001C034E14D
:10070000042E000C550B57FF03C05195419551091C
:10071000E32E022F242FAE010E94C503CE01DF91EC
:10072000CF911F910F91EF900895662777270C9432
:100730001F054CE151E00E949E030895FA01A1912A
:10074000B081009719F41097E1F0CD01DC01CD01E3
:100750000D90002011F4C00113C0FB012191222350
:1007600019F02015D9F7F3CFFB012191201519F4C9
:100770001E92119606C02223C1F70D900020A1F70A
:10078000D001FA01A193B0830895A9E0B0E0EBECA9
:10079000F3E00C9475086A01122FB02E2BE320179A
:1007A00020F0FF24F394F00E02C02CE3F22E0F2D64
:1007B00027E0AE014F5F5F4F0E946D06BC0149818B
:1007C000842F8970813031F0E1FC06C0E0FE06C064
:1007D00090E205C09DE203C09BE201C090E05E2D67
:1007E000507143FF3CC0911102C083E001C084E01E
:1007F000811718F4212F281B01C020E051110BC0D4
:10080000F601822F30E2882319F031938150FBCF1B
:10081000C20ED11C20E0992329F0D6019C93F60149
:1008200031966F01C6010396E2FE0AC03EE4D6018E
:100830003C9341E411964C93119712963C9306C059
:100840003EE6F601308341E641833283FC01322FDC
:1008500040E2332309F442C041933150FACF42FFC2
:1008600044C0911102C083E001C084E0811718F4F4
:10087000212F281B01C020E051110BC0F601822F4F
:1008800030E2882319F031938150FBCFC20ED11C86
:1008900020E0992329F0D6019C93F60131966F014F
:1008A000C6010396E2FE0BC039E4D6013C933EE458
:1008B00011963C93119736E412963C9307C039E6A3
:1008C000F60130833EE6318336E63283FC01322F77
:1008D00040E2332319F041933150FBCFFC01E20F8A
:1008E000F11D10828EEF9FEFA6C021E030E0911144
:1008F00002C020E030E0161617061CF4FB0131960A
:1009000002C0E1E0F0E02E0F3F1FBB2021F0EB2DF5
:10091000F0E0319602C0E0E0F0E02E0F3F1FE12F43
:10092000F0E02E173F071CF4121B212F01C020E01E
:100930008E2D887159F4F601822F30E2882319F048
:1009400031938150FBCFC20ED11C20E0992329F0B6
:10095000D6019C93F60131966F0151110BC0F6013F
:10096000822F90E3882319F091938150FBCFC20E20
:10097000D11C20E00F2D060F9A81342F307144FFD7
:1009800003C0913309F40150101624F4093018F013
:1009900008E001C001E0AB0177FF02C040E050E099
:1009A000FB01E41BF50BA1E0B0E0AC0FBD1FEA0FAB
:1009B000FB1F8EE2A82E4B01801A91080B2D10E030
:1009C0001195019511094F3FBFEF5B0721F4D60147
:1009D000AC9211966D01641775072CF0841695067C
:1009E00014F4818101C080E3415051093196D60150
:1009F00011967D014017510724F0D6018C936701B1
:100A0000E2CF6417750739F4963320F4953319F45F
:100A1000311101C081E3F6018083F701822F90E25A
:100A2000882319F091938150FBCFF701E20FF11D5C
:100A3000108280E090E02996ECE00C949108A0E010
:100A4000B0E0E5E2F5E00C947508EC016B0161158E
:100A5000710519F0FB01918380837E01FFEFEF1A8E
:100A6000FF0A0881802F90E00E944507892B11F032
:100A7000E701F3CF0D3239F47E0182E0E80EF11C7C
:100A8000098111E008C00B3229F47E0192E0E90EE1
:100A9000F11C098110E0E701219743E050E06CEB85
:100AA00070E0CE010E944E07892BC1F4239645E0E9
:100AB00050E067EB70E0CE010E944E07892B09F4ED
:100AC0002596C114D10419F0F601D183C083111108
:100AD000F6C060E070E080E89FE7FAC043E050E0D5
:100AE00064EB70E0CE010E944E07892B59F4C114CB
:100AF000D10409F4E9C0F2E0EF0EF11CF601F18235
:100B0000E082E2C020E030E0A901C0E0D0E0F701DF
:100B100080EDA82EA00E89E08A1530F1912F926009
:100B2000B92E812F887012FF04C0811124C0219634
:100B300022C081112197A5E0B0E00E946408DC0189
:100B4000CB01880F991FAA1FBB1F9C01AD012A0D65
:100B5000311D411D511D283989E93807480789E1B0
:100B6000580748F0166006C09EEFA9120AC013FD90
:100B700040C01860B12E8FEFE81AF80A00811B2DD3
:100B8000C6CF802F8F7D8534A1F580818D3211F401
:100B9000106106C08B3221F0319661E070E004C034
:100BA0008181329662E070E080538A3018F0E61B53
:100BB000F70B1FC060E070E060389CE079075CF4E0
:100BC000DB01AA0FBB1FAA0FBB1F6A0F7B1F660F9B
:100BD000771F680F711D3196DF0111978C9180533B
:100BE0008A3050F314FF03C0719561957109C60FE7
:100BF000D71F11FF08C0C114D10429F0CF010197FC
:100C0000F60191838083CA01B9010E946607212FF2
:100C10002370233019F04B015C0106C04B015C01CD
:100C2000B7FAB094B7F8B09420E030E0A901C5015C
:100C3000B4010E944703882309F43EC0D7FF06C0D1
:100C4000D195C195D10903ED10E002C00BEE10E083
:100C50006801F8E1CF1AD10890E2E92EF12CCE1507
:100C6000DF0574F0F8012591359145915491C50146
:100C7000B4010E94A3074B015C01CE19DF09EFCF3D
:100C800004501109F594E7940C151D0541F78A2DC0
:100C9000880F8B2D881F8F3F49F020E030E0A9019D
:100CA000C501B4010E944703811106C082E290E0B1
:100CB0009093B0018093AF01C501B40109C060E019
:100CC00070E080E89FEF04C060E070E080EC9FE798
:100CD000CDB7DEB7ECE00C949108283008F027E09F
:100CE0003327DA01990F311D87FD91600096610568
:100CF000710539F432602E5F3D9330E32A95E1F7B8
:100D000008959F3F30F080387105610509F03C5F20
:100D10003C5F3D93913008F08068911DDF93CF9345
:100D20001F930F93FF92EF92192F987F9695E92FBB
:100D300096959695E90FFF27E75BFE4F9927332796
:100D4000EE24FF24A701E70105900894079428F4F6
:100D5000360FE71EF81E491F511D660F771F881FAB
:100D6000991F0694A1F70590079428F4E70EF81E42
:100D7000491F561FC11D770F881F991F661F0694B4
:100D8000A1F70590079428F4F80E491F561FC71FB6
:100D9000D11D880F991F661F771F0694A1F7059034
:100DA000079420F4490F561FC71FD81F990F661FBD
:100DB000771F881F0694A9F784911095177041F04A
:100DC000D695C79557954795F794E7941A95C1F727
:100DD000EFEEF0E06894159015913591659195913D
:100DE00005907FE27395E118F10A430B560BC90B8E
:100DF000D009C0F7E10CF11E431F561FC91FD01DBB
:100E00007EF4703311F48A95E6CFE894015030F007
:100E1000080F0AF40027021708F4202F2395022F49
:100E20007A3328F079E37D932A95E9F710C07D9312
:100E30002A9589F60694979567953795179517948F
:100E4000E118F10A430B560BC90BD00998F0239512
:100E50007E9173957A3308F070E37C932013B8F792
:100E60007E9170617D9330F0839571E37D9370E3A3
:100E70002A95E1F71124EF90FF900F911F91CF91E8
:100E8000DF91992787FD9095089591110C94100892
:100E9000803219F089508550C8F70895FB01DC01B4
:100EA0004150504088F08D9181341CF08B350CF40A
:100EB000805E659161341CF06B350CF4605E861BBE
:100EC000611171F3990B0895881BFCCFE89409C058
:100ED00097FB3EF490958095709561957F4F8F4F6D
:100EE0009F4F9923A9F0F92F96E9BB279395F69583
:100EF000879577956795B795F111F8CFFAF4BB0F01
:100F000011F460FF1BC06F5F7F4F8F4F9F4F16C064
:100F1000882311F096E911C0772321F09EE8872FEE
:100F2000762F05C0662371F096E8862F70E060E0AA
:100F30002AF09A95660F771F881FDAF7880F969523
:100F4000879597F908950E94B6070C942A080E9485
:100F50001C0838F00E94230820F0952311F00C940F
:100F600013080C94190811240C945E080E943B0885
:100F700070F3959FC1F3950F50E0551F629FF001EC
:100F8000729FBB27F00DB11D639FAA27F00DB11D05
:100F9000AA1F649F6627B00DA11D661F829F22278E
:100FA000B00DA11D621F739FB00DA11D621F839F15
:100FB000A00D611D221F749F3327A00D611D231FEB
:100FC000849F600D211D822F762F6A2F11249F5739
:100FD00050409AF0F1F088234AF0EE0FFF1FBB1F3C
:100FE000661F771F881F91505040A9F79E3F5105FB
:100FF00080F00C9413080C945E085F3FE4F3983E75
:10100000D4F3869577956795B795F795E7959F5FA4
:10101000C1F7FE2B880F911D9695879597F9089536
:1010200099278827089597F99F6780E870E060E026
:1010300008959FEF80EC089500240A941616170671
:1010400018060906089500240A94121613061406B9
:1010500005060895092E0394000C11F4882352F01C
:10106000BB0F40F4BF2B11F460FF04C06F5F7F4FD4
:101070008F4F9F4F089557FD9058440F551F59F0BB
:101080005F3F71F04795880F97FB991F61F09F3F75
:1010900079F087950895121613061406551FF2CF9E
:1010A0004695F1DF08C0161617061806991FF1CFEE
:1010B00086957105610508940895E894BB27662715
:1010C0007727CB0197F908950E94A608A59F900D58
:1010D000B49F900DA49F800D911D112408952F920F
:1010E0003F924F925F926F927F928F929F92AF92B8
:1010F000BF92CF92DF92EF92FF920F931F93CF9305
:10110000DF93CDB7DEB7CA1BDB0B0FB6F894DEBF9B
:101110000FBECDBF09942A88398848885F846E84C1
:101120007D848C849B84AA84B984C884DF80EE800B
:10113000FD800C811B81AA81B981CE0FD11D0FB614
:10114000F894DEBF0FBECDBFED010895A29FB001A0
:10115000B39FC001A39F700D811D1124911DB29FEB
:0E116000700D811D1124911D0895F894FFCF8C
:10116E002C00466C65783A20002C20583A2000203E
:0C117E00593A2000205A3A20000D0A00C7
:00000001FF
